:020000040800F2
:10000000700C00207D020008C5510008894A0008D4
:1000100000000000000000000000000000000000E0
:10002000000000000000000000000000D95500089A
:100030000000000000000000C95100082D56000813
:100040008F0200088F0200088F0200088F0200084C
:100050008F0200088F0200088F0200088F0200083C
:100060008F0200088F0200088F020008F11F0008AD
:100070008F0200088F0200088F0200088F0200081C
:100080008F020008D55600088F020008000000000B
:100090008F0200088F0200088F0200088F020008FC
:1000A0008F0200088F0200088F0200088F020008EC
:1000B0008F0200088F0200088F0200088F020008DC
:1000C00000F002F800F0CBF812A030C8083824186D
:1000D0002D18AC4201D100F0C2F80FCCA246AB46BD
:1000E0000CA730CF2D1B083F3F197C427F1E544484
:1000F0002D090426F441641EAC4201D300F0AFF890
:100100000126334200D0FB1A3343984754465D46DC
:10011000DFE700003082000050820000103A02D376
:1001200078C878C1FAD8520701D330C830C101D598
:1001300004680C6070470000704700000023002432
:1001400000250026103A01D378C1FBD8520700D30E
:1001500030C100D50B60704710B56E2902D100F098
:1001600003FC10BD702902D100F03FFD10BD6629CF
:1001700002D106F0ADFD10BD652902D106F0A8FD43
:1001800010BD672902D106F0A3FD10BD612902D17F
:1001900006F0A6FD10BD03681B0A01D38023194396
:1001A000692902D100F0AAFB10BD642902D100F038
:1001B000A5FB10BD752902D100F0A0FB10BD6F2971
:1001C00002D100F0BDFC10BD782902D100F0FAFC8C
:1001D00010BDE92902D100F059FC10BDE42902D17B
:1001E00000F054FC10BDF52902D100F04FFC10BD09
:1001F000EF2902D100F0B0FC10BDF82902D100F0C7
:10020000EFFC10BD0368DB0901D380231943632988
:1002100002D101F01EFA10BD732902D101F021FABA
:1002200010BDE32902D101F02BFA10BDF32902D150
:1002300001F02EFA10BD002010BD1FB501F0C0FA6C
:1002400004000020002106F055FC401C60600020E6
:10025000002106F039FCE0601FBD10B510BD01F0B3
:1002600087FA1146FFF7E9FF06F02AF801F01CFEB5
:1002700003B4FFF7F2FF03BC01F0B2FE074880476A
:1002800007480047FEE7FEE7FEE7FEE7FEE7FEE77A
:1002900004480549054A064B70470000D15600083E
:1002A000C100000870060020700C002070080020BB
:1002B00070080020FEB5044610460D46184373D062
:1002C000A6468C460020A41A01469D4167D3664687
:1002D000002701243D46B61A9D4102D313463A46F3
:1002E0002124654676462F04360C3E432D0CB61A63
:1002F0009D4104D3150C1B042B4312041034654696
:1003000076462F06360A3E432D0AB61A9D4104D37F
:10031000150E1B022B4312020834654676462F0742
:1003200036093E432D09B61A9D4104D3150F1B0112
:100330002B431201241D65467646AF07B6083E439F
:10034000AD08B61A9D4104D3950F9B002B43920034
:10035000A41C65467646EF0776083E436D08B61A3C
:100360009D411AD392185B41641C16E00018764632
:1003700065464941B71A9D410191009009D36046F5
:10038000B11A98418E468446009801990025401C78
:100390006941DD0752082A435B08641EE6D57246B0
:1003A000634603B0F0BDFFE72046284307D0002096
:1003B000C0430146C046C04622462B46F1E7002016
:1003C0000146F7E70FB41CB50C0007AA009007D050
:1003D0004142A14202D30019401E01E00020C04367
:1003E000074B7B4469460190069800F0D6FA00213D
:1003F000002C01D0009A11701CBC08BC04B0184736
:10040000DB05000030B5441C03E00178401C0029E6
:100410000DD08107F9D10B4BDD0104C8D11A9143EE
:100420002940FAD0001B0A0603D0C01E30BD001BB5
:1004300030BD0A0401D0801E30BD0902FCD0401E30
:1004400030BD000001010101D2B210B513029A18AB
:1004500013049A1800F00EF810BD01E004C0091F43
:100460000429FBD28B0701D50280801CC90700D06C
:100470000270704700290BD0C30702D00270401CE5
:10048000491E022904D3830702D50280801C891EDD
:10049000E3E70022EEE70022DFE700000022030985
:1004A0008B422CD3030A8B4211D300239C464EE08F
:1004B00003460B433CD4002243088B4231D303094B
:1004C0008B421CD3030A8B4201D394463FE0C309FD
:1004D0008B4201D3CB01C01A524183098B4201D315
:1004E0008B01C01A524143098B4201D34B01C01A00
:1004F000524103098B4201D30B01C01A5241C30878
:100500008B4201D3CB00C01A524183088B4201D3E6
:100510008B00C01A524143088B4201D34B00C01AD2
:100520005241411A00D201465241104670475DE0E7
:10053000CA0F00D04942031000D3404253409C46AA
:10054000002203098B422DD3030A8B4212D3890167
:10055000FC2212BA030A8B420CD3890192118B42FE
:1005600008D3890192118B4204D389013AD09211A8
:1005700000E08909C3098B4201D3CB01C01A524163
:1005800083098B4201D38B01C01A524143098B422C
:1005900001D34B01C01A524103098B4201D30B0115
:1005A000C01A5241C3088B4201D3CB00C01A52413A
:1005B00083088B4201D38B00C01A5241D9D2430821
:1005C0008B4201D34B00C01A5241411A00D201465E
:1005D0005241104663465B1001D34042002B00D5C8
:1005E0004942704763465B1000D3404201B505495C
:1005F000002802DC491C084000E00846C046C0460E
:1006000002BD00BFFFFFFF7F7047704770470000CB
:100610000121C9050123411842001B06D3185B0EB6
:100620000AD0C1100722D206891840075242D1428F
:1006300001D5520089187047090208D50146002AE1
:1006400003D0C10FC907002070471046704742020F
:1006500002D0002002497047072109050143F4E751
:100660000000F87FF0B5FF252D04C609C209FF2759
:1006700004462E400137CB093E4348402A402B40D8
:100680000746002A6BD0002B69D0AA4267D0AB4244
:1006900065D0002800DA32460125ED0529432C43B8
:1006A00009022002090AD21A4B0C7F24E31A434C98
:1006B000000A7C44E35C7D242404121914145B00BA
:1006C000A218884201D3521C00E0400049420C4667
:1006D0005C4324115C43DB016415E318040A5C43AA
:1006E000C502200D0C4644436419250A5D432303CB
:1006F000EC0C0D46654300030019EB184C42A34275
:1007000001D35B18401CD4052018002B07D05B00D8
:10071000C91804D3401C002901D1400840003F21E2
:1007200089048A4209D3002A08DC1106090F04D083
:10073000032149074018C00FC007F0BD0122410046
:10074000120689187F2252069142F6D205214907E6
:10075000C84201D59010F0BDFF20C005F0BD002FAC
:1007600000DA32461648AA4207D2AB4205D2190235
:10077000090E17D0F80FC007F0BDFF2563002D0646
:10078000AB42F9D84900A942F6D8AB4201D1A942FF
:10079000F2D0A94201D1002101E061004908D00551
:1007A0000843F0BD1102090EFBD0FF200243D00523
:1007B000F0BD0A460146104654E700003A660000C4
:1007C0000000C07F1F22030C02D10F2200041CD0A6
:1007D000030E01D10002083A030F01D10001121FDC
:1007E000830F01D18000921E002801DB4000521EC1
:1007F000D2055118021251181922904004D3491CF5
:10080000002801D14908490008467047C10FC907AF
:1008100000D04042012292071143D3E7012189070A
:10082000D0E710B500F0FAFA006810BD10B5044624
:1008300000F0F4FA046010BD70B5044685690068E4
:10084000C10601D5302600E02026C00707D070BDC4
:1008500062683046A1689047206A401C20626D1E85
:10086000F6D570BD70B5044685690078C00707D11C
:1008700070BD6268A16820209047206A401C2062F9
:100880006D1EF6D570BD09684A0501D540B27047A6
:10089000C905FCD500B2704709684A0501D5C0B248
:1008A0007047C905FCD580B2704770B50C46054647
:1008B000012A05D02878800600D5EA69002302E0E5
:1008C000012305E05B1C934202D2E05C0028F9D1D1
:1008D000A869E618C01AA861286AC01828622846C4
:1008E000FFF7AAFF04E06A682078A968641C9047B3
:1008F000B442F8D32846FFF7B5FF70BDF7B5002521
:1009000075291068009914A611D0FFF7BCFF0028C4
:1009100002DA404211A608E0009909688A0701D569
:100920000FA602E0490704D50EA6012501E0FFF756
:10093000B3FF009F0024243704E000F0CEFE3031E6
:100940003955641C0028F8D12B46324621460098C0
:1009500000F0A5FAFEBD0000000000002D00000020
:100960002B0000002000000011680268006A530597
:1009700001D5087009E0D30501D5088005E013060C
:1009800002D5C21705C100E00860012070470000D1
:1009900001694A1C02610878704700B58FB0029166
:1009A0000021059105490193794403911146049072
:1009B000684600F027F90FB000BD0000E5FFFFFF1B
:1009C0000CC908399A4202D2531C0B601070704750
:1009D000F7B50446154686B02B487844002703C86F
:1009E0003E460090019111E007986A467100415A15
:1009F00002A800F051FE411C07D02178890603D5DA
:100A0000E269391891420ED83F18761C207880068A
:100A100002D5E069B84206DDAE42E5DB0798710019
:100A2000405A0028E0D1A069C01BA0612046FFF712
:100A300003FF154878445A3803C8009000200191FC
:100A400016E041006A460798415A02A800F024FEC9
:100A50000590401C0AD0002505E0626802A8A16844
:100A6000405D90476D1C05988542F6D30498401C64
:100A7000B0420490E5DB206AC01920622046FFF7EF
:100A8000F1FE09B0F0BD000052630000F7B5D21DC1
:100A90000025D20815A6D200F52905CA11D0002AD2
:100AA00005DA00214042914111A60A4608E000996A
:100AB00009688B0701D50FA602E0490701D50EA6EC
:100AC00001251146009F0024243704E000F0AAF914
:100AD00030323A55641C02460A43F7D12B4632465F
:100AE0002146009800F0DBF9FEBD00000000000088
:100AF0002D0000002B0000002000000070B504460F
:100B00000021243408E05507D2086D0F30356554B4
:100B10005D072A43DB08491C15461D43F3D10468D1
:100B2000002310A2250708D520252C400C4304D013
:100B3000C46901230CA2641EC46100F0B0F970BD49
:100B400010B5044621461068FFF7A6FE00230246B2
:100B50002046FFF7D3FF10BDD21DD108C9000CC934
:100B6000CCE700000000000030000000F8B50F46A0
:100B70000188090502D5224C7C4402E0204C7C44CB
:100B80000E3405460021243508E016071209360FF9
:100B9000A65D6E541E0732431B09491C16461E43B0
:100BA000F3D1224604780023240705D5702F06D000
:100BB000002901D00223113200F071F9F8BD0123A0
:100BC0001032F9E770B504460D4621461068FFF76C
:100BD00063FE0023024629462046FFF7C7FF70BD8B
:100BE000D21DD308DB000CCBC0E730B4036820244F
:100BF0001268234303600823C36130BC0023B5E7B8
:100C0000BC610000F3B50446002081B0206220469C
:100C1000E1688847002872D0252802D06268A16860
:100C2000ABE0594F00267F442046E16888472028E2
:100C3000054608DB312D06D27819203800780028C7
:100C400001D00643F0E7B00701D504208643002019
:100C5000E0610746A0612A2D0AD0284605F017FF5B
:100C6000002827D0B8000019303D0090856119E0B8
:100C70000298BA00121902C8916102902046E168F8
:100C80008847012F054617D1E06900281FDA202088
:100C900086431CE000980A21806948430099401966
:100CA000303888612046E1688847054605F0EFFE48
:100CB0000028EFD1012F0AD02E2D08D12046E1685F
:100CC00088470546202006437F1C022FC3DBA0690E
:100CD000002803DA4042A06101200643F00701D05A
:100CE000102086436C2D0BD0682D09D04C2D3CD0A4
:100CF0006A2D38D0742D38D07A2D36D016E040E0E9
:100D0000E1682F4620468847B842054609D16C2F36
:100D100029D001208002E168064320468847054625
:100D200004E06C2F1DD0FF2001300643002D28D099
:100D300028464138192803D80120C002064320352F
:100D4000204626602946029A1646FFF705FA002833
:100D500010D001280BD0F61DF008C000083002901A
:100D600055E74020E1E78020D5E70020D3E7361D96
:100D700002964CE762682846A1689047206A401CAA
:100D800044E7206AFEBD00003661000030B5C30DA7
:100D90001906214A090E31D0FF292FD000283ADB4D
:100DA00001025002014301207D33C34000D24908B3
:100DB000012080071724091A2406490882102343BA
:100DC000FF252D064C00211A04D4891A02D45400A0
:100DD000201800E0214652085B19F3D51A22044678
:100DE000944007D382068A4203D180218030884311
:100DF00000E08030C009D905081830BDFF2904D0B3
:100E00004100FAD0C00FC00730BD410201D01046EA
:100E100030BD0028FCDAFAE70000C07F00487047C8
:100E2000200000200B4670B5024689078008084361
:100E300019469D08141AA941250908070543080900
:100E40002C194841250A01060D43010A2C1941417C
:100E5000200C0D0428430D0C00194D4100214019B0
:100E60004D41C00869070843E908840F8D002543F8
:100E7000840024184D4124196D41121BAB4107E039
:100E80000925ED432C11521963410024401C614196
:100E90001C460A250026551BB441F1D270BDFFB592
:100EA00004460D4681B0243000902168880604D5A0
:100EB0001022E0699143216000E00120A84201DD99
:100EC000471B00E000270498A1697A191018081A36
:100ED000A0612078C00602D42046FFF7ADFC0026B2
:100EE00008E003986268A168805D9047206A401C12
:100EF000761C206204988642F3DB2078C0060AD56F
:100F00002046FFF799FC06E06268A1683020904710
:100F1000206A401C206238467F1E0028F4DC07E06F
:100F200000986268A168405D9047206A401C20627A
:100F300028466D1E0028F3DC2046FFF793FC20783E
:100F4000000602D5022005B0F0BD0120FBE700003D
:100F5000FFB50C461E468FB003CA089009914F009A
:100F60007D0D00D16D1E002108460020C0460321E2
:100F7000099A89050840002A03DA8200801840088F
:100F80000840800D01280A9002DD0020C0430A902D
:100F9000089807430DD0F048F04928184843071433
:100FA000189800281DD07542291E1DDD0A9842425E
:100FB0001BE01898012802D00020302104E0002016
:100FC000F24305E02154401CB042FBDB30460022D6
:100FD000189B002121540F998B600A60486013B060
:100FE000F0BDBD1B6D1CDFE70A9A002900DA6942DB
:100FF0000BA800F02DFC0BAB07CB03AB07C3089984
:10100000099800F091FC6B4607C30146D4480918C3
:10101000002D00910BDDD24903980A9A49424018ED
:10102000002303A90390684600F0EEFE08E0039950
:101030000A9A0023081803A90390684600F08EFE60
:101040006B4607C30004000C03D00020C0434108D6
:1010500000E01046189A002A03D00022009215469C
:101060001EE0751E05D4FFF7DDFE303262556D1EA1
:10107000F9D501220843079602D000227F1C04E024
:101080002078302801D100227F1E002A069787D0C1
:101090001EE0112D07DAFFF7C5FE303262556D1CD8
:1010A00002460A43F5D1084303D00098002819D01E
:1010B0000EE00021681E05E0235C625C635422544C
:1010C000401E491C8142F7DBA81B401E0795069075
:1010D000079A18990020A0540F98079B069A8160E0
:1010E0000CC07CE711260020189059E7D21DF0B5FE
:1010F0000D460446D10893B0C90003C90C900D9168
:1011000005F0A4FC02460D98C00F01D02D2007E089
:101110002068810701D52B2002E04007C00F400165
:10112000032A0F9001D0072A05DB034629462046F3
:1011300000F04AFB0EE12078800601D5E76900E067
:1011400006272846652D04D0662814D0672D69D15E
:101150002DE00020112F009001DB112300E07B1C0B
:101160000CAA03A910A8FFF7F3FE11990026109806
:101170007D1C0E9142E001203B460CAAC0070B905B
:101180000120009003A910A8FFF7E2FE119D12981C
:101190001099002600280E9501D1781C0D18781B97
:1011A00002D446427D1C761EE81B00903AE0012FD7
:1011B00000DA01270020112F009001DD112300E04B
:1011C0003B460CAA03A910A8FFF7C2FE11993D46A1
:1011D000109800260E91217809070BD40E99A94288
:1011E00000DA0D4603A9012D04DD4A19203AD27F09
:1011F000302A06D0B84201DA011D04DA012100913B
:101200000FE06D1EEFE7002802DC86192D1A03E0BF
:10121000411CA94200DD0D46801B401C00900120AE
:10122000C0070B902078000705D40098A84202DB85
:101230000020C043009069460020C8720B9801212D
:1012400002AF0337C907884225D0022010902B2017
:1012500011900B9800280BDA40420B902D20119032
:1012600006E00B9800F039FA30317F1E0B90397090
:101270001099481E00291090F3DC0B980028F0D13B
:1012800011987F1E38702088000501D5452000E0A8
:1012900065207F1E387001A8C01BC01D0B900F98E1
:1012A000002800D0012041190098C01709180B9898
:1012B0000818A169081A401EA0612078C00602D44F
:1012C0002046FFF7B9FA0F98002805D06268A16898
:1012D0009047206A401C20622078C00625D5204611
:1012E000FFF7AAFA21E0002E07DB0E98B04204DDDA
:1012F00003A86268805DA16802E06268A16830208E
:101300009047206A761C401C20620098401E0028EE
:1013100000900AD100F054FAC06862680168405C2D
:10132000A1689047206A401C206228466D1E002854
:10133000D9DC07E062683878A1687F1C9047206A92
:10134000401C20620B99481E00290B90F2DC2046BD
:10135000FFF788FA032042E601FCFFFF104D000072
:10136000E1DFFFFFD21DF0B504460D46D0088DB079
:10137000C000466807683146384605F067FB0246FC
:10138000F00F01D02D2307E02068810701D52B2322
:1013900002E04007C00F43016846002B037001D0F4
:1013A000012000E00020032A0A9001D0072A04DB74
:1013B0002946204600F008FA2DE12078800601D465
:1013C0000D2500E0E5697000400D0D2D01904BDA10
:1013D000300D00210B9008460020C04603218905EE
:1013E0000840002E05DA82008018C20F1018401045
:1013F00008408015012801DD0020C043A90000231A
:10140000182906D39C460A460123183A1B07D340E5
:1014100003E001221205CA4094460C31202902D370
:101420003A46203900E032468A40002802DD002A90
:1014300006D119E0002817D10121C9078A4213D328
:10144000194663467F185E41002806D10120C00777
:10145000824202D1084687439E430B98310D814258
:1014600002D00198401C01902088000502D57149E6
:10147000794402E06F49794419396B460A98302261
:101480001A540A980A7C401C1A54401C0A9001986D
:10149000002801DC302000E031201872019A012080
:1014A000002A02D0644BD21804E072003A4302D002
:1014B000614A521C0192002D02DC2278120703D5EA
:1014C0006A462E20507202200022864694460CE086
:1014D00032033601120F6D1E8B5C02AA1354624652
:1014E000521C401C9446052A01DA002DF0DC002233
:1014F00002AE08E03B0F3F01CB5C521C6D1E335423
:10150000401C082A01DA002DF4DC23689A0601D574
:1015100011E0401E704504DD3218203AD27F302A97
:10152000F7D0002807DD3218203AD27F2E2A02D1C8
:101530001A0700D4401E002D03DD3E223254401C09
:101540006D1E497C31540199401C002906DA2D2179
:10155000471C315401984042019003E02B21471C65
:10156000315401987D21C900884206DBFEF7A0FFB7
:101570003030F0557F1C019101E0642808DB0198B0
:101580006421FEF795FF3030F0557F1C019101E09A
:101590000A2806DB01980A21FEF78AFF3030F05551
:1015A0007F1C01980A21FEF783FF3031F1550A981C
:1015B000A1697F1C7A191018081AA0612078C0064A
:1015C00002D42046FFF738F9216A6E460A980818B7
:1015D000206204E062683078A168761C90470A981F
:1015E000401E0A90401CF5D12078C00602D5204646
:1015F000FFF722F902AE09E03078761C3E280DD0C4
:101600006268A1689047206A401C20627F1EF3D266
:101610002046FFF727F90DB00320F0BD206A4019DE
:10162000206203E06268A168302090476D1EEDD310
:10163000F8E700001059000001FCFFFF10B54369F6
:10164000002B02D0C046C04601E0FFF72EF9012072
:1016500010BD1278014624310A7000224A7001221E
:10166000ECE711680022D243E8E710B54369002B8C
:1016700002D0C046C04601E0FFF7AAF9012010BD24
:1016800012880146243182840022C2840122ECE7C0
:1016900011680022D243E8E7F8B516460C46054625
:1016A00000F086F80368FF200230C05C012807D0F4
:1016B000FF2C0FD8185D00280CD001202C70F8BD2D
:1016C000FF333246214608331868C71828460023DE
:1016D000B847F8BD0020C043F8BD01468008081A8D
:1016E00002091018020A1018020C1018C008820013
:1016F00012185200891A01E0401C0A390A29FBD24B
:101700007047000010B5FF231B0644009C421DD803
:101710004C009C421AD80346124A0B4307D4401A85
:1017200002D3EFF3008010BDEFF3008010BD081A64
:1017300003D3EFF30080904305E0EFF30080012135
:101740009043C907084380F3008810BD0D231B0494
:101750001A4204D01146002000F0AEFB10BD00F08C
:10176000C3FB10BD0000009000487047200000201F
:101770007546FFF7F9FFAE46050069465346C008B7
:10178000C000854618B020B5FEF782FD60BCB646A5
:1017900000260027C0C5C0C5C0C5C0C5C0C5C0C5DE
:1017A000C0C5C0C5403D490849008D46704700008E
:1017B00010B500F005F8001D10BD00BF3953000042
:1017C0000048704740000020F8B51F46044601233A
:1017D0000068DB02032601461840072A05DB0028C3
:1017E00001D017A506E017A504E0002801D016A532
:1017F00000E016A5102081432160A069C01E002FC3
:10180000A06101D0401EA0612046FFF715F8002F0F
:1018100009D038466268A1689047206A401C20625F
:10182000C01C206206E0206AFAE762682878A16896
:101830006D1C9047761EF8D22046FFF713F8F8BDCE
:101840004E414E006E616E00494E4600696E660064
:10185000F7B516468AB0334878446C4603467C3365
:10186000C06F5A689B680DC42E487844763003AC2C
:101870000DC80DC43720C001081837211B30FEF7F2
:1018800017FE05460C46803D1B3C02D564420120F4
:1018900000E000200027099010E0E0070CD00C20A9
:1018A00020497843794432464C394118684601232F
:1018B00000F054FA6B4607C364107F1C002CECD177
:1018C000184F7F442E3F16E0E80712D02001C019C0
:1018D0000EC80691089307920068F04201D198194A
:1018E00008903246012306A903A800F037FA03AB9B
:1018F00007C36D10641C002DE6D10998002806D09E
:1019000032466946012303A800F07EFA05E0012370
:101910003246694603A800F021FA0A9B07C30DB0BE
:10192000F0BD00003C550000034640000A4610B5DB
:10193000400D0BD00121C9070F24A40200191C037C
:1019400064082143540D2143D20207E00021012005
:10195000F2E7D40F490021435200401E0029F8DA73
:10196000DB0FDB07184310BDFFB50D46144685B0ED
:101970004868516805F052F800910190A868A16884
:1019800005F04CF802910390A868616805F046F8EC
:10199000029A12188242029201D2012000E0002035
:1019A000019A0B18D2180028019202D08A4202D95B
:1019B00003E08A4201D2012000E0002000990818CB
:1019C00000906868A16805F029F8029A121882420E
:1019D000029201D2012000E00020019A0B18D218D7
:1019E0000028019202D08A4202D903E08A4201D241
:1019F000012000E000200099081800902868216864
:101A000040004900400849084018FA49471814E0C6
:101A100001994000C90F08430090019802994000C5
:101A2000C90F08430190029803994000C90F084369
:101A30000290039840007F1E039000980028E7DA88
:101A40000898002801D0EC4E00E00026B74201DAE9
:101A5000012000E00020002804902AD0F71BF8069F
:101A6000C00E15D0029B2021091A039A8B401A43FD
:101A70000392029A019BC2408B401A430292019A40
:101A8000009BC2408B4000991A430192C1400091D3
:101A90007B110DD06F460320C11A03D500218200AF
:101AA000B95003E08A008100BA587A50401EF3D53D
:101AB000374603980299002800D001200143089876
:101AC0000291002808460CD0002800D0012001997E
:101AD000019A490508430121D20AC902D2020192A2
:101AE00000E001210E9B0122D207012B02D0002B26
:101AF00003D013E0002807D120E0904204D89042A0
:101B00000CD1019B0B4209D0019B5918019105D1C1
:101B10000099491C009101D17F1C009200280DD032
:101B2000102108460020C0460498002806D00F98CF
:101B3000002803D0082108460020C04628682168F4
:101B4000019B009A4840C10F0598C90739430EC050
:101B500009B0F0BDFFB587B0099A08980899536895
:101B60009268406889689646002203931746944617
:101B7000089A12685300099A5B08126852005208CA
:101B80009A1A9E4BD4180A9A002A01D0352200E0F6
:101B9000402206920022012315460492DB0705939A
:101BA00024E0002D05D175460346039E4D1BB3412D
:101BB00009D375466646039B491B049D9841059BC6
:101BC0007519AC465F4163463B4308D0059B049EB4
:101BD000DD0776082E435B080496059301E0521E4C
:101BE000641EC50FED0749184041521C069B9A42DE
:101BF000D7DB002D04D17546039A6B1A824101D2BE
:101C000003200CE0039A0B466B404240134303D081
:101C1000014303D0012002E0022000E000206146E1
:101C200001910021009702910A99002905D061468F
:101C300040020143704B019102E0800700230290B3
:101C40009C4201DA012000E0002007003AD01A1B74
:101C5000D006C00E15D0029D2021019C091AC54056
:101C60008C402543029C8C4000D001242543019CDC
:101C70000295009DC4408D4000992C430194C140C1
:101C8000009154111DD06D460221002202290CD171
:101C90000320001B07E0002804DB8600AE59002E5D
:101CA00000D00122401C0328F5DB081B02D5880068
:101CB0002A5004E08000285810438A00A850491E8A
:101CC000E3D51C460A98002802980CD0002800D0C2
:101CD00001200199019A490508430121D20AC9024C
:101CE000D202019200E00121109B0122D207012BB8
:101CF00002D0002B03D013E0002807D11FE0904250
:101D000004D890420CD1019B0B4209D0019B591879
:101D1000019105D10099491C009101D1641C0092E8
:101D200000280CD0102108460020C046002F06D005
:101D30001198002803D0082108460020C0460898C2
:101D40000999019A009B006809684840C10F0798EB
:101D5000C907214382600AC00BB0F0BD00B585B051
:101D6000019300920A460146002302A8FFF7FCFDFA
:101D700002A807C805B000BDFFB50A461F4685B0DA
:101D80000799019301230091014602A8FFF7ECFD9A
:101D900002990398049ECA0F4900D20700920F22AD
:101DA000490892028C1A0021002800DB0C464500ED
:101DB00013486D08844214D3079A002A04DA441E9B
:101DC0000026104DF64302E004460D460E46102153
:101DD00008460020C046002F03D0042108460020FA
:101DE000C0462005E90A0843009908436905F20A3C
:101DF0001143ADE602C0FFFF013C0000FF3F0000C1
:101E0000FF070000FFFFFF7F00B585B00193009240
:101E10000A460146002302A8FFF79CFE02A807C855
:101E2000A8E7FFB50A461F4685B00799019301232D
:101E30000091014602A8FFF78DFE02990398049EC7
:101E4000CA0F4900D20700920F22490892028C1A49
:101E50000021002800DB0C46450011486D08844233
:101E600014D3079A002A04DA441E00260D4DF643C7
:101E700002E004460D460E46102108460020C046EA
:101E8000002F03D0042108460020C0462005E90A9F
:101E90000843009908436905F20A114358E6000017
:101EA000FF070000FFFFFF7F10B50446C046C04695
:101EB0002046FEF7DDF910BDC80212D54803400FD9
:101EC000002804D0C803C043012188407047EFF3C5
:101ED00000800001000903210907084380F30088FE
:101EE000704700207047000010B5024800F048F825
:101EF00010BD00000000C07F024670B50A43920783
:101F00002AD11E4DEE0104C808C9541B9443344025
:101F100017D0D0B2D9B2401A2106014310D190B2E5
:101F200099B2401A210401430AD110021902000A91
:101F3000090A401A2102014302D1100E190E401A5B
:101F400070BD9A42DFD010BA19BA884201D9012077
:101F500070BD0020C04370BD02780B78401C491C46
:101F6000002A09D09A4207D102780B78401C491CFC
:101F7000002A01D09A42EFD0D01A70BD01010101B0
:101F800010B50C461107090F092904D00A290AD0F7
:101F900008290CD104E011460820FFF78DFF06E068
:101FA000510606D501E0510601D50120C0072146A2
:101FB00010BDD10607D501010909CC084907000E5B
:101FC0000006044309E0410F20024907000A0143CB
:101FD000200E00061D22D14101430846E7E700001C
:101FE00001491820ABBEFEE7260002007047000042
:101FF00080B5024800F035F880BDC0468804002056
:1020000084B0039002910192009303994A6C1C20C2
:10201000024001209040096C4860009803990968CB
:10202000486003988068102809D1FFE70198039958
:1020300009688860029803990968C86008E00298F6
:10204000039909688860019803990968C860FFE7E7
:1020500004B0704781B0EFF3108072B60090FFE7D4
:10206000FEE780B584B003900398006C006802908E
:10207000039800680068019002980399496C1C223B
:102080001140C8404007002826D5FFE701A8007886
:102090004007002820D5FFE7039800680068800605
:1020A000002807D4FFE703980168086804229043DA
:1020B0000860FFE703994A6C1C200240042090400E
:1020C000096C48600398006B002804D0FFE7039870
:1020D000016B8847FFE770E002980399496C1C2266
:1020E0001140C8408007002830D5FFE701A80078DC
:1020F000800700282AD5FFE703980068006880065B
:1021000000280BD4FFE70398016808680A2290436F
:1021100008600399252201208854FFE703994A6C3F
:102120001C20024002209040096C4860FFE70399A0
:10213000242200208854FFE70398C06A002804D0B6
:10214000FFE70398C16A8847FFE735E002980399E3
:10215000496C1C221140C840000700282AD5FFE71F
:1021600001A800780007002824D5FFE7039801683C
:1021700008680E2290430860039A536C1C200340A9
:10218000012001469940126C51600399C86303997C
:1021900025228854FFE70399242200208854FFE772
:1021A0000398406B002804D0FFE70398416B8847F1
:1021B000FFE700E0FFE7FFE7FFE704B080BD0000B6
:1021C00080B584B002900298002804D1FFE703A9EB
:1021D0000120087055E00298009000682B494018D3
:1021E0001421FEF75BF900998000486402992848A1
:1021F0000864029925220220885402980068006829
:102200000190019823490840019002988168C268B2
:102210001143026911434269114382691143C26942
:102220001143006A01430198084301900198029903
:10223000096808600298806801218903884213D0E8
:10224000FFE70298406C1C2318400F22824012497D
:1022500008689043086002984268406C18408240C9
:10226000086810430860FFE702990020C863029ADB
:1022700025230121D15402992422885403A90870EE
:10228000FFE703A8007804B080BDC046F8FFFDBF9B
:10229000000002400F80FFFFA800024080B586B01A
:1022A0000490039102920193694600200870FFE7B1
:1022B00004982421405C012804D1FFE705A90220ED
:1022C00008704CE00499242201208854FFE7FFE7BE
:1022D00004982521405C012833D1FFE70499252289
:1022E0000220885404990020C86304980168086893
:1022F00001229043086004980399029A019BFFF71A
:102300007FFE0498006B002807D0FFE7049801685F
:1023100008680E22104308600CE004980168086801
:102320000422904308600498016808680A22104358
:102330000860FFE7049801680868012210430860FC
:1023400009E0FFE70499242200208854FFE769464A
:1023500002200870FFE7009805A90870FFE705A8AC
:10236000007806B080BD00008CB00B900A91002070
:10237000099008900790FFE70A9800680999C840FB
:10238000002800D162E10A980068099A0121914071
:10239000084008900898002800D153E10A98406846
:1023A00003210840012807D0FFE70A98406803216D
:1023B000084002282CD1FFE70B9880680790099805
:1023C0004000032181400798884307900A98C1681C
:1023D00009984000814007980843079007980B9997
:1023E00088600B9840680790099801218140079800
:1023F000884307900A98406810210840010909980D
:10240000814007980843079007980B994860FFE7B9
:102410000A98406803210840032816D0FFE70B986C
:10242000C0680790099840000321814007988843BD
:1024300007900A98816809984000814007980843EE
:10244000079007980B99C860FFE70A984068032136
:102450000840022820D1FFE70B980999C908890094
:102460004018006A079009984007C00E0F2181406C
:102470000798884307900A98016909984007C00E99
:10248000814007980843079007980B99099AD2084A
:10249000920089180862FFE70B9800680790099876
:1024A0004100032002468A400799914307910A9907
:1024B0004968014009984000814007980843079007
:1024C00007980B9908600A9880798007002800D146
:1024D000B7E05F49086801221043086009980321AA
:1024E00088435C494058079009988007000F0F21E6
:1024F00081400798884307900B9805210907884277
:1025000003D1FFE70020069038E00B98524988423B
:1025100003D1FFE7012005902DE00B984F49884239
:1025200003D1FFE70220049022E00B984C49884237
:1025300003D1FFE70320039017E00B984949884235
:1025400003D1FFE7042002900CE00B99464A0520D6
:10255000062300939142019001D0009801900198C8
:102560000290FFE702980390FFE703980490FFE7CB
:1025700004980590FFE705980690FFE706990998EB
:102580008007000F81400798084307900798099932
:10259000032291432F4A88503448006807900899D5
:1025A0000798884307900A988079C006002805D5C7
:1025B000FFE70899079808430790FFE707982B491A
:1025C00008602B480068079008990798884307908F
:1025D0000A9880798006002805D5FFE708990798B2
:1025E00008430790FFE707982149086021480068E1
:1025F000079008990798884307900A988079800780
:10260000002805D5FFE70899079808430790FFE7DA
:1026100007981849086018480068079008990798B3
:10262000884307900A988079C007002805D0FFE703
:102630000899079808430790FFE707980E49086034
:10264000FFE7FFE70998401C099095E60CB070473A
:1026500034100240080001400004005000080050FF
:10266000000C005000100050001C005008040140F5
:102670000C040140040401400004014083B00290B6
:1026800001A80180029949690091009A01881046C9
:1026900008400004914340180299886103B07047D4
:1026A00083B0029001A8018068460270007800287B
:1026B00005D0FFE701A800880299886104E001A81D
:1026C000008802998862FFE703B0704701480068FC
:1026D0007047C0466806002010B583B00190009195
:1026E00001984121405C202839D1FFE7FFE701989C
:1026F0004021405C012804D1FFE702A902200870B4
:1027000031E00199402201208854FFE7FFE7019959
:1027100041222420885401980168086801239843C5
:1027200008600198016808681C03A0430860009CC9
:1027300001980168086820430860019801680868EA
:1027400018430860019920208854FFE7019940222E
:1027500000208854FFE702A90020087003E002A9C6
:1027600002200870FFE702A8007803B010BD84B013
:102770000290019102984121405C20283FD1FFE75F
:10278000FFE702984021405C012804D1FFE703A93C
:102790000220087037E00299402201208854FFE7A8
:1027A000FFE70299412224208854029801680868B2
:1027B0000123984308600298006800680090009820
:1027C0000F210902884300900198010200980843F4
:1027D00000900098029909680860029801680868EA
:1027E00018430860029920208854FFE7029940228C
:1027F00000208854FFE703A90020087003E003A924
:1028000002200870FFE703A8007804B070470000BA
:1028100080B582B000900098002804D1FFE701A99C
:10282000012008707EE000984121405C002808D11A
:10283000FFE70099402200208854009800F0A8FA91
:10284000FFE7009941222420885400980168086815
:10285000012290430860009948680F231B069843A3
:1028600009680861009801688868D203904388600D
:102870000098C068012808D1FFE700998868012204
:10288000D20310430968886007E000998868212214
:102890009202104309688860FFE70098C068022828
:1028A00008D1FFE70098016848680122D20210436E
:1028B000486007E00098016848680122D20290430E
:1028C0004860FFE7009801684868184A104348606C
:1028D00000980168C8680122D3039843C860009932
:1028E00008694B6918438B691B0218430968C86063
:1028F0000099C8690B6A1843096808600098016864
:10290000086810430860009900204864009A412339
:102910002021D1540099086300994222885401A9CA
:102920000870FFE701A8007802B080BD00800002B7
:1029300010B58CB00A9009A8018008920793002076
:1029400005900A984121405C202800D0F4E00A98C4
:102950000068806980B2C00B012804D1FFE70BA991
:1029600002200870ECE0FFE70A984021405C012853
:1029700004D1FFE70BA902200870E1E00A99402288
:1029800001208854FFE7FFE70A9941222420885458
:102990000A9900204864FFE70A98C068012808D116
:1029A000FFE709A800886849084069494018029073
:1029B00007E009A80088644908406449401802906B
:1029C000FFE702980A9909684860FFF77FFE0690C2
:1029D0000A980068806920210840400904A908700D
:1029E0000A980068806910210840000903A908704E
:1029F000FFE704A8017800200029019006D1FFE735
:102A000003A80078414248410190FFE70198C007C0
:102A1000002835D0FFE70798401C00281FD0FFE7AB
:102A2000FFF754FE0699401A0799884204D8FFE739
:102A30000798002812D1FFE70A984121202242542A
:102A40000A99486C10434864FFE70A994022002025
:102A50008854FFE70BA90120087071E0FFE70A988E
:102A60000068806920210840400904A908700A987C
:102A70000068806910210840000903A90870B8E7C0
:102A80000A9800688069102108400009002820D1B8
:102A9000FFE70A98079B069900912021002202F087
:102AA0003BF9002804D0FFE70BA90120087047E09C
:102AB0000A9801682020C8610A9941228854FFE7DA
:102AC0000A99402200208854FFE70BA900200870D3
:102AD00036E00A98079B069900912021002202F017
:102AE0001BF9002804D0FFE70BA90120087027E09C
:102AF0000A9801681020C8610A9801682020C861FE
:102B0000FFE70598401C0590FFE705980899884263
:102B100000D241E70A984121202242540A99486C88
:102B200010434864FFE70A99402200208854FFE7D9
:102B30000BA90120087003E00BA902200870FFE731
:102B40000BA800780CB010BDFF03000000280002A5
:102B50000020000210B588B00A9C069005A80180EC
:102B6000049203A8038006984121405C202800D0ED
:102B700001E1FFE706984021405C012804D1FFE70E
:102B800007A902200870FAE0069940220120885423
:102B9000FFE7FFE7FFF79AFD029006980299009180
:102BA0000122D103192302F0B7F8002804D0FFE76F
:102BB00007A901200870E2E00699412221208854EB
:102BC00006994222102088540699002048640499EE
:102BD000069A51620399069A5185069948630698A8
:102BE000408D000A002807D0FFE70699FF200885DE
:102BF00001200006019007E00698408D069908859F
:102C0000012040060190FFE70698008D00281DD0A6
:102C1000FFE70699486A0078096888620699486A59
:102C2000401C48620699488D401E48850699088DCB
:102C3000401E0885069805A90988028D521C019B33
:102C4000514C0094D2B202F03DF80AE0069805A972
:102C500009882822825C019B4B4C009402F032F8D8
:102C6000FFE7FFE70698408D00285DD0FFE7069854
:102C70000A99029A02F001F9002804D0FFE707A997
:102C8000012008707BE00699486A0078096888622C
:102C90000699486A401C48620699488D401E48853E
:102CA0000699088D401E08850698408D00283AD068
:102CB000FFE70698008D002835D1FFE706980A9BAC
:102CC000029900918021002202F026F8002804D009
:102CD000FFE707A90120087051E00698408D000A1F
:102CE00000280FD0FFE70699FF200885069805A960
:102CF00009882822825C0023009301231B0601F02F
:102D0000E1FF0FE00698408D06990885069805A911
:102D100009882822825C0023009301235B0601F0CE
:102D2000D1FFFFE7FFE79DE706980A99029A02F0B4
:102D300054F8002804D0FFE707A9012008701EE01E
:102D4000069801682020C86106990A6851680F4BEF
:102D50001940516006994122885406994222002068
:102D60008854FFE70699402200208854FFE707A90E
:102D70000020087003E007A902200870FFE707A8F9
:102D8000007808B010BDC0460020008000E800FEBA
:102D900080B588B0079000200690059004900390BD
:102DA0000290079800681449884222D1FFE7FFE7A4
:102DB000BD48026801210A43026000680840019092
:102DC0000198FFE7032041020291122103910121A2
:102DD000009104910590062006900520000702A9A5
:102DE000FFF7C2FA009AAF4908685205104308601D
:102DF000FFE708B080BDC0460054004081B000909D
:102E000001B0704780B588B006900698002804D1BC
:102E1000FFE707A901200870CFE006983521405C44
:102E2000002808D1FFE7069934220020885406982C
:102E300000F0CAF8FFE70699352202208854069967
:102E40000A68D1695F4B1940D16106990968086227
:102E500006984069022862D0FFE70698C0680028FB
:102E600003D1FFE71020039002E020200390FFE74A
:102E700006988068202804D8FFE703984000039054
:102E8000FFE700F0CBFD019006980069012149029F
:102E9000884224D1FFE70698C06800280FD0FFE7DA
:102EA000019803998900FDF7F9FA01460A20484381
:102EB00006994969FDF7F2FA401D02900EE001986B
:102EC0000399C900FDF7EAFA01460A20484306992A
:102ED0004969FDF7E3FA401D0290FFE70DE0019814
:102EE0000399FDF7DBFA01460A2048430699496930
:102EF000FDF7D4FA401D0290FFE702980A21FDF782
:102F0000CDFA029002980121084004900298049999
:102F1000401A4008059004980002049004E0022042
:102F2000059000200490FFE70598022805D3FFE7ED
:102F30000598000A002809D0FFE70699886B10223F
:102F40001043886307A90120087036E00598049AA9
:102F500006990B691A4310430968086206980068CD
:102F6000C26918480240069948688B681843CB68C4
:102F700018438B69184310430122D2021043096899
:102F8000C86106988068302805D0FFE706988068F9
:102F9000B02808D1FFE706980168C869012212032A
:102FA0001043C861FFE7069900208863069A35231D
:102FB0000121D15407A90870FFE707A8007808B0DD
:102FC00080BDC04640F0FFFF80B58CB00B90002064
:102FD0000A9009900890079006900B980068304975
:102FE00088425BD1FFE7D44908680122920310436D
:102FF0000860FFE72C48026804210A430260006869
:10300000084005900598FFE7FFE72748026802217E
:103010000A4302600068084004900498FFE7082013
:1030200006900220019007900021029108910990DA
:103030000A901E4806A90091FFF796F90099019A97
:10304000029803231B0306930792089009920A90A3
:103050001748FFF789F90199029A16480390164B11
:10306000036041608260C2608021016101210B0226
:1030700043618B028361C26149030162FFF7A0F8DB
:10308000002803D0FFE7FEF7E5FFFFE7FFE70B9817
:10309000084901630B988862FFE7FFE70CB080BD29
:1030A00000380040381002402C1002400008005048
:1030B00000040050880400204400024080B586B01F
:1030C0000490039102A802800398002805D0FFE72E
:1030D00002A80088002804D1FFE705A90120087094
:1030E000AAE004983521405C012804D0FFE705A937
:1030F00002200870A0E0FFE704983421405C01281A
:1031000004D1FFE705A90220087095E00499342254
:1031100001208854FFE7FFE70499352204208854F2
:103120000499002088630398049948620498006811
:10313000C0690721084001900198032804D0FFE7E7
:103140000198052809D1FFE70298400004990885F5
:10315000029840000499488506E002980499088581
:10316000029804994885FFE70498016B3448086386
:103170000498016B3348C8620498016B3248486375
:1031800004980068C06903210902084088420ED1F2
:10319000FFE7FFE70020009004980068C0680090F7
:1031A00004980068806800900098FFE7FFE7049BA0
:1031B000186B19680C315A6A1B8DFFF76FF80028DD
:1031C00013D0FFE70499886B0822104388630499A1
:1031D000352201208854FFE70499342200208854C6
:1031E000FFE705A90120087026E0FFE704993422D3
:1031F00000208854FFE7049800684068C007002852
:1032000007D1FFE70498016848680122104348602D
:10321000FFE704980068C0694005002808D4FFE76C
:1032200004980168C869012292021043C861FFE74F
:1032300005A900200870FFE705A8007806B080BD4A
:103240009F4F0008654F0008274F000881B000908D
:1032500001B0704781B0009001B070472D480278EE
:1032600002490868801808607047C0466806002058
:1032700080B582B001A9002008700B49086840227F
:1032800010430860032000F011F8002804D0FFE785
:1032900001A90120087002E000F040F8FFE701A852
:1032A000007802B080BDC0460020024080B584B0E6
:1032B0000290174800680190164801787D20C000F0
:1032C000FDF7ECF801460198FDF7E8F801F06EF81B
:1032D000002804D0FFE703A90120087014E0029839
:1032E000032809D8FFE702990022D04300F031F803
:1032F00002980949086003E003A90120087003E06F
:1033000003A900200870FFE703A8007804B080BD7F
:103310001000002014000020180000200549086853
:10332000012210430860E74908681207104308604B
:103330007047C046341002403810024080B582B059
:10334000014601A801700021405602F0EDFE02B0D6
:1033500080BD80B584B0034603A80370029101923A
:1033600000214056029902F0F5FE04B080BD000035
:1033700080B586B0049001A9002008700498006808
:1033800020210840202806D0FFE704984078000755
:10339000002800D41FE1049800788006002801D599
:1033A000FFE7FFE7049840780007002801D5FFE712
:1033B000FFE7C4480068C000002809D4FFE7C14AFD
:1033C0001168012003071943116001A90870FFE784
:1033D000BD480068C00500281DD4FFE7BA49086849
:1033E0000122120210430860FFF770F90390FFE713
:1033F000B5480068C00500280CD4FFE7FFF766F960
:103400000399401A652804D3FFE705A90320087033
:1034100053E1EDE7FFE7AD48006803210A051040DE
:1034200002900298049949681140884209D1FFE747
:10343000029804998968032212051140884214D029
:10344000FFE70498406803210904084088420BD133
:10345000FFE79E4800688003002804D5FFE705A920
:103460000120087029E1FFE7FFE799480068032180
:103470000904084002900298002851D0FFE7029802
:1034800004994968032212041140884207D0FFE7DB
:10349000049800682021084020280FD0FFE70298F8
:1034A00004998968032212041140884238D0FFE74A
:1034B000049840780007002832D5FFE7844908685F
:1034C000032212049043029008680122D2041043A0
:1034D00008600868904308600298086002A8407875
:1034E000C00700281BD0FFE7FFF7F0F80390FFE7C5
:1034F00077480068012149020840400A00280DD1A0
:10350000FFE7FFF7E3F80399401A7349884204D3B1
:10351000FFE705A903200870CFE0E9E7FFE7FFE731
:10352000049840780007002821D5FFE7FFE7FFE770
:103530000498806803210904084088420BD1FFE702
:1035400062490868032213059843049A92681A4056
:1035500080180860FFE7FFE70498826803200004F2
:1035600002405B49086810430860FFE7FFE70498E2
:1035700000788006002821D5FFE7FFE7FFE70498E1
:10358000406803210904084088420BD1FFE74F49F6
:103590000868032213059843049A52681A40801859
:1035A0000860FFE7FFE70498426803200004024038
:1035B0004749086810430860FFE7FFE701A8007863
:1035C000012807D1FFE73F4908680122120790430D
:1035D0000860FFE7FFE704980078C007002809D0DB
:1035E000FFE73C49086803229043049AD2681043DD
:1035F0000860FFE7049800788007002809D5FFE7F6
:10360000344908680C229043049A126910430860F8
:10361000FFE704980078400700280AD5FFE72D4906
:103620000868032292029043049A5269104308608A
:10363000FFE704980078000700280AD5FFE725492E
:103640000868032212039043049A926910430860A9
:10365000FFE704984078C00700280AD0FFE71D491B
:103660000868032212049043049AD2691043086048
:10367000FFE704980078400600280AD5FFE71549BF
:103680000868012292069043049A526A1043086027
:10369000FFE704980078000600280AD5FFE70D49E7
:1036A0000868032292049043049A126A1043086047
:1036B000FFE705A900200870FFE705A8007806B01D
:1036C00080BDC0463810024000700040001002402B
:1036D000501002404C1002408913000080B586B0A3
:1036E000049003910498002804D1FFE705A9012064
:1036F000087062E10398B3490968012211408842C9
:1037000021D9FFE7AF49086801229043039A10438B
:103710000860FEF7DBFF0290FFE7AA48006801217E
:103720000840039988420DD0FFE7FEF7CFFF0299CA
:10373000401AA549884204D3FFE705A90320087071
:103740003BE1EAE7FFE7049800788007002809D505
:10375000FFE7F3490868F0229043049A9268104307
:103760000860FFE704980078C007002800D1BCE09B
:103770000498406802280ED1FFE7EB480068012159
:1037800049040840400C002804D1FFE705A90120A6
:10379000087012E134E00498406803280ED1FFE776
:1037A000E1480068012149060840400E002804D184
:1037B000FFE705A901200870FFE020E004984068B9
:1037C00001280DD1FFE7D84800680421084080088F
:1037D000002804D1FFE705A901200870EDE00DE005
:1037E000D1480068012149020840400A002804D15C
:1037F000FFE705A901200870DFE0FFE7FFE7FFE72B
:10380000C749086803229043049A5268104308602D
:10381000FEF75CFF029004984068022816D1FFE78B
:10382000FFE7BF4800680C21084008280DD0FFE7DB
:10383000FEF74CFF0299401A6349884204D3FFE720
:1038400005A903200870B8E0EBE74DE00498406854
:10385000032816D1FFE7FFE7B14800680C210840B4
:103860000C280DD0FFE7FEF731FF0299401A5649A8
:10387000884204D3FFE705A9032008709DE0EBE729
:1038800031E004984068012816D1FFE7FFE7A4481B
:1038900000680C21084004280DD0FFE7FEF716FF52
:1038A0000299401A4849884204D3FFE705A903203A
:1038B000087082E0EBE715E0FFE799480068000731
:1038C000800F00280DD0FFE7FEF700FF0299401A95
:1038D0003D49884204D3FFE705A9032008706CE046
:1038E000EBE7FFE7FFE7FFE7FFE7039835490968E4
:1038F00001221140884221D2FFE7324908680122A3
:103900009043039A10430860FEF7E0FE0290FFE741
:103910002C48006801210840039988420DD0FFE738
:10392000FEF7D4FE0299401A2749884204D3FFE7E4
:1039300005A90320087040E0EAE7FFE70498007853
:10394000400700280AD5FFE77549086807221202D8
:103950009043049AD26810430860FFE70498007807
:10396000000700280BD5FFE76D4908680722D2023F
:103970009043049A1269D20010430860FFE700F0F8
:103980004DF867490968C9B20A091049895CC840FD
:10399000124908600E480068FFF788FC014601A83C
:1039A00001700078002804D0FFE7019805A908708D
:1039B00003E005A900200870FFE705A8007806B01D
:1039C00080BDC04600200240891300002C6E000814
:1039D00018000020014800687047C0461000002011
:1039E00080B5FFF7F7FF4E49096807221202114020
:1039F0000A0A0949895CC84080BDC04680B5FFF706
:103A0000E9FF474909680722D2021140CA0A024960
:103A1000895CC84080BDC0463C6E000880B588B057
:103A20003F480068079007980C21084001900C2837
:103A300066D80198810001A040588746FF3A0008E7
:103A4000013B0008013B0008013B0008713A0008F7
:103A5000013B0008013B0008013B00088B3A0008CD
:103A6000013B0008013B0008013B0008913A0008B7
:103A70002D480068C006002803D5FFE72C480290B7
:103A800002E02A480290FFE746E02A48029043E01D
:103A900007980F2189040840810C2248405C069059
:103AA0000798032189050840800D401C05901C489B
:103AB0000068C003002808D5FFE706991D48484361
:103AC0000599FCF7EBFC049016E017480068C00667
:103AD000002808D5FFE70699154848430599FCF7E3
:103AE000DDFC049007E00699104848430599FCF76F
:103AF000D5FC0490FFE7FFE7049802900CE0FFE795
:103B00000D48006880B2400B03900398411C0120CF
:103B10008840C0030290FFE7029808B080BDC0460D
:103B20000C1002400C830008001002400024F40036
:103B300000093D0000127A000410024010B58AB05E
:103B400008900898002805D1FFE709A9012008700E
:103B500000F015FCFD4801680C221140049100683A
:103B6000012109040840039008980078C007002844
:103B700000D18DE0049808280AD0FFE704980C28AB
:103B800019D1FFE7039801210904884213D1FFE707
:103B9000EF480068012149040840400C002809D082
:103BA000FFE708984068002804D1FFE709A9012031
:103BB0000870E4E36BE0FFE708984068012109041E
:103BC000884207D1FFE7E249086801221204104346
:103BD000086021E0089840680521090488420BD15B
:103BE000FFE7DB490868012293041843086008686E
:103BF0001204104308600EE0D5490868012213043E
:103C00009843086008681840029002980868920477
:103C100090430860FFE7FFE7FFE708984068002847
:103C20001AD0FFE7FEF752FD0790FFE7C84800688B
:103C3000012149040840400C00280CD1FFE7FEF7A1
:103C400045FD0799401A652804D3FFE709A9032019
:103C5000087094E3EAE719E0FEF738FD0790FFE704
:103C6000BB480068012149040840400C00280CD0E2
:103C7000FFE7FEF72BFD0799401A652804D3FFE7FD
:103C800009A9032008707AE3EAE7FFE7FFE7FFE707
:103C9000089800788007002800D4A8E00898C06839
:103CA000069006A800788006002809D5FFE7A84AF4
:103CB0001068202108431060069888430690FFE7AB
:103CC0000498042808D0FFE704980C2841D1FFE7A6
:103CD000039800283DD1FFE79D4800680421084073
:103CE0008008002808D0FFE70698002804D1FFE7E5
:103CF00009A90120087042E3964908681F221202B0
:103D00009043089A126912021043086090490868AB
:103D100009229043069A10430860FFE7FFF77EFEF2
:103D20008A490968C9B20A098B49895CC8408B492C
:103D300008608B480068FFF7B9FA014605A80170D2
:103D40000078002804D0FFE7059809A9087016E359
:103D50004CE0069800282AD0FFE77D490868092230
:103D60009043069A10430860FEF7B0FC0790FFE707
:103D70007748006804210840800800280CD1FFE73C
:103D8000FEF7A4FC0799401A032804D3FFE709A90A
:103D900003200870F3E2EBE76E4908681F22120265
:103DA0009043089A12691202104308601DE06849A6
:103DB0000868012290430860FEF788FC0790FFE73F
:103DC0006348006804210840800800280CD0FFE701
:103DD000FEF77CFC0799401A032804D3FFE709A9E2
:103DE00003200870CBE2EBE7FFE7FFE7FFE7089867
:103DF0000078C006002800D4A1E00498002845D12E
:103E0000FFE753480068012149020840400A0028A2
:103E100009D0FFE70898C069002804D1FFE709A985
:103E200001200870ABE24B49086807225203904317
:103E3000089A526A104308600868FF2212069043ED
:103E4000089A126A1206801808600898406A400BA7
:103E5000411C01208840C0033C490968C9B20A09D5
:103E60003D49895CC8403D4908603D480068FFF70E
:103E70001DFA014605A801700078002804D0FFE76C
:103E8000059809A908707AE2FFE757E00898C06929
:103E9000002832D0FFE72E490868012212021043A1
:103EA0000860FEF713FC0790FFE72948006801212E
:103EB00049020840400A00280CD1FFE7FEF706FC43
:103EC0000799401A032804D3FFE709A903200870C3
:103ED00055E2EAE71F490868072252039043089A0F
:103EE000526A104308600868FF2212069043089A3D
:103EF000126A1206801808601FE01549086801223E
:103F0000120290430860FEF7E1FB0790FFE71048BC
:103F10000068012149020840400A00280CD0FFE750
:103F2000FEF7D4FB0799401A032804D3FFE709A939
:103F30000320087023E2EAE7FFE7FFE7FFE70898BE
:103F40000078000700284FD50CE0C0460C10024056
:103F500000100240041002402C6E000810000020E7
:103F6000180000200898406900281ED0FFE7FD498E
:103F70000868012210430860FEF7A8FB0790FFE7DE
:103F8000F848006802210840400800280CD1FFE7EB
:103F9000FEF79CFB0799401A032804D3FFE709A901
:103FA00003200870EBE1EBE71DE0F9490868012206
:103FB00090430860FEF78AFB0790FFE7F44800682B
:103FC00002210840400800280CD0FFE7FEF77EFBE6
:103FD0000799401A032804D3FFE709A903200870B2
:103FE000CDE1EBE7FFE7FFE70898007840070028FE
:103FF00000D4BBE001A900200870E6480068C000BA
:10400000002809D4FFE7E34A116801200307194398
:10401000116001A90870FFE7DF480068C0050028AB
:104020001DD4FFE7DC490868012212021043086032
:10403000FEF74CFB0790FFE7D7480068C005002853
:104040000CD4FFE7FEF742FB0799401A652804D31A
:10405000FFE709A90320087091E1EDE7FFE7FFE71B
:104060000898806801210902884207D1FFE7C84902
:10407000086801221202104308602EE00898806848
:1040800000280BD1FFE7C2490868012213029843B8
:10409000086008689202904308601DE008988068F4
:1040A0000521090288420BD1FFE7B94908680122BE
:1040B00093021843086008681202104308600AE07F
:1040C000B349086801221302984308600868920205
:1040D00090430860FFE7FFE7FFE7FFE70898806885
:1040E00000281BD0FFE7FEF7F1FA0790FFE7A8488A
:1040F0000068012149020840400A00280DD1FFE76D
:10410000FEF7E4FA0799401AA449884204D3FFE76E
:1041100009A90320087032E1E9E71AE0FEF7D6FAB0
:104120000790FFE79A480068012149020840400AC9
:1041300000280DD0FFE7FEF7C9FA0799401A974902
:10414000884204D3FFE709A90320087017E1E9E7D3
:10415000FFE701A80078012807D1FFE7F8490868C0
:104160000122120790430860FFE7FFE708980078F4
:104170008006002854D5FFE708988069002829D0D8
:10418000FFE7FFE786490868012210430860864977
:1041900008681043086083490868520310430860A8
:1041A000FFE7FEF793FA0790FFE77D4800680221DA
:1041B0000840400800280CD1FFE7FEF787FA07996E
:1041C000401A032804D3FFE709A903200870D6E0AA
:1041D000EBE724E0FFE7724908680122904308609A
:1041E00070490868520390430860FFE7FEF76EFAD3
:1041F0000790FFE76A48006802210840400800284D
:104200000CD0FFE7FEF762FA0799401A032804D39F
:10421000FFE709A903200870B1E0EBE7FFE7FFE73C
:104220000898806A002800D1A5E004980C2872D074
:10423000FFE70898806A02284CD1FFE753490868D5
:104240000122120690430860FEF740FA0790FFE74C
:104250004E480068012149060840400E00280CD055
:10426000FFE7FEF733FA0799401A032804D3FFE764
:1042700009A90320087082E0EAE743490868FD22A3
:1042800012049043089BDA6A1C6B22435B6B1A434F
:10429000104308603D490868012212061043086077
:1042A000FEF714FA0790FFE7384800680121490635
:1042B0000840400E00280CD1FFE7FEF707FA0799E7
:1042C000401A032804D3FFE709A90320087056E029
:1042D000EAE71FE02D4908680122120690430860B2
:1042E000FEF7F4F90790FFE7284800680121490626
:1042F0000840400E00280CD0FFE7FEF7E7F90799C9
:10430000401A032804D3FFE709A90320087036E008
:10431000EAE7FFE72EE00898806A012804D1FFE76A
:1043200009A9012008702AE0174800680390039843
:104330000121090408400899C96A884214D1FFE79D
:1043400003980F21890408400899096B88420BD112
:10435000FFE703980321890508400899496B8842C3
:1043600006D001E05010024009A90120087006E0C3
:10437000FFE7FFE7FFE709A900200870FFE709A8AA
:1043800000780AB010BDC0460C1002400010024078
:1043900050100240381002400070004089130000A5
:1043A00008100240200001403410024080B582B065
:1043B0000190019801F012F902B080BD85B0039020
:1043C0000291FFE703983821405C012804D1FFE700
:1043D00004A90220087053E0039938220120885470
:1043E000FFE7FFE703993922022088540398006809
:1043F00040680190039800688068009001987021DF
:10440000884301900298016801980843019001983F
:104410000399096848600398006801218907884268
:1044200012D0FFE7039800686E4988420CD0FFE77E
:10443000039800686C49884206D0FFE7039800683B
:104440006A4988420ED1FFE7009880218843009096
:104450000298416800980843009000980399096801
:104460008860FFE70399392201208854FFE7039908
:10447000382200208854FFE704A900200870FFE7D5
:1044800004A8007805B0704780B582B0009000980D
:10449000002804D1FFE701A90120087030E000984E
:1044A0003921405C002808D1FFE70099382200201C
:1044B0008854009800F028F8FFE70099392202207C
:1044C0008854009901C901F00DF900993E2201209C
:1044D0008854FFE700993A220120885400993B2232
:1044E000885400993C22885400993D228854FFE763
:1044F000009939220120885401A900200870FFE7A3
:1045000001A8007802B080BD80B582B0019001980A
:1045100000680A4988420FD1FFE70949086810225C
:10452000104308601120009000221146FEF711FF91
:104530000098FEF703FFFFE702B080BD00100040C7
:104540003810024083B0019001983921405C012865
:1045500004D0FFE702A9012008703EE0019939224A
:104560000220885401980268D06801210843D06075
:10457000019800688907884212D0FFE70198006817
:10458000184988420CD0FFE7019800681649884214
:1045900006D0FFE7019800681449884212D1FFE76E
:1045A000019800688068072108400090009806285C
:1045B00007D0FFE7019801680868012210430860EE
:1045C000FFE706E0019801680868012210430860CF
:1045D000FFE702A900200870FFE702A8007803B0F7
:1045E0007047C0460004004000080140001401402C
:1045F00081B0009001B0704780B584B003900398FB
:104600000068C0680290039800680069019001A8E2
:1046100000788007002825D5FFE702A800788007EA
:1046200000281ED5FFE7039801680220C0430861F7
:1046300003990120087603980068806980070028A4
:1046400004D0FFE70398FFF7D3FF06E0039800F0DC
:10465000BAF8039800F0BBF8FFE70399002008764A
:10466000FFE7FFE701A800784007002826D5FFE70D
:1046700002A80078400700281FD5FFE703980168CB
:104680000420C0430861039902200876039800685B
:1046900080698005800F002804D0FFE70398FFF7AA
:1046A000A7FF06E0039800F08EF8039800F08FF85B
:1046B000FFE7039900200876FFE7FFE701A80078ED
:1046C0000007002825D5FFE702A80078000700288A
:1046D0001ED5FFE7039801680820C04308610399CD
:1046E0000420087603980068C0698007002804D079
:1046F000FFE70398FFF77CFF06E0039800F063F8FC
:10470000039800F064F8FFE7039900200876FFE7BC
:10471000FFE701A80078C006002826D5FFE702A819
:104720000078C00600281FD5FFE703980168102015
:10473000C043086103990820087603980068C0699F
:104740008005800F002804D0FFE70398FFF750FF93
:1047500006E0039800F037F8039800F038F8FFE718
:10476000039900200876FFE7FFE701A80078C0075B
:10477000002810D0FFE702A80078C007002809D061
:10478000FFE7039801680120C0430861039800F027
:1047900023F8FFE7FFE701A800784006002810D5BE
:1047A000FFE702A800784006002809D5FFE7039834
:1047B00001684020C0430861039800F01FF8FFE73C
:1047C000FFE704B080BD81B0009001B0704781B0B8
:1047D000009001B07047000080B582B00190019850
:1047E0000449884204D1FFE7034802F098F8FFE744
:1047F00002B080BD600500203006002081B000902E
:1048000001B0704780B582B000900098002804D1B4
:10481000FFE701A90120087048E00098806900289E
:1048200001D0FFE700E0FFE70098C06F002808D143
:10483000FFE70099782200208854009800F03AF8A9
:10484000FFE700992420C8670098016808680122E2
:10485000904308600098406A002804D0FFE7009861
:1048600000F0A8FFFFE7009801F058F9012804D1F3
:10487000FFE701A90120087018E000980168486866
:104880000922D202904348600098016888682A2271
:10489000904388600098016808680122104308600E
:1048A000009801F035F801A90870FFE701A8007829
:1048B00002B080BD80B588B00790002006900590BA
:1048C00004900390029007980068124988421FD113
:1048D000FFE7114908680122920310430860FFE7CF
:1048E0000E48026802210A430260006808400190F5
:1048F0000198FFE7C020029002200390002004905E
:10490000032105910690064802A9FDF72DFDFFE75A
:1049100008B080BD00380140341002402C10024025
:104920000004005010B58AB00890079106A80280D4
:1049300005930898C06F202800D09BE007980028B6
:1049400005D0FFE706A80088002804D1FFE709A9E1
:104950000120087092E008988068012109038842CC
:1049600010D1FFE70898006900280BD1FFE707A8DE
:104970000078C007002804D0FFE709A901200870CB
:104980007CE0FFE7089984220020885008992120C4
:10499000C867FDF79BFE029006980899502288523E
:1049A00006980899522288520898806801210903C4
:1049B00088420AD1FFE708980069002805D1FFE77F
:1049C000002004900798039004E0079804900020CA
:1049D0000390FFE7FFE708985221405A002830D0A3
:1049E000FFE70898029B059900918021002201F0C1
:1049F00017FB002807D0FFE708992020C86709A9FE
:104A0000032008703AE0049800280BD1FFE70398D0
:104A100000881C4908400899096888620398801C2E
:104A2000039008E00498007808990968886204985F
:104A3000401C0490FFE708995222885A401E885271
:104A4000C9E70898029B059900914021002201F0D6
:104A5000E7FA002807D0FFE708992020C86709A9CE
:104A6000032008700AE008992020C86709A90020DF
:104A7000087003E009A902200870FFE709A8007880
:104A80000AB010BDFF010000FFE7FEE781B0009013
:104A9000009800688069022108404008002805D07D
:104AA000FFE70098016800208862FFE7009800682F
:104AB0008069C007002807D1FFE70098016888696E
:104AC000012210438861FFE701B0704780B58AB0CA
:104AD00009900891079206A90020087009990968B1
:104AE0008969059104900798039005A80078C0068D
:104AF000002800D484E0099801681020C861FFE70D
:104B00000998006880692021084041090020002997
:104B1000009006D1FFE706A8007841424841009086
:104B2000FFE70098C007002858D0FFE70898401C0E
:104B3000002852D0FFE7FDF7C9FD0399401A0899F4
:104B4000884204D8FFE70898002845D1FFE7099874
:104B500000684068012189030840029009984221B9
:104B6000405C01A9087009980068806980B2C00B98
:104B7000002816D0FFE7029801218903884210D04F
:104B8000FFE701A8007820280BD0FFE7099801680B
:104B900048680122920310434860FDF797FD039097
:104BA000FFE7FFE709980068806920210840400975
:104BB000002810D1FFE7FDF789FD0399401A1A2854
:104BC00008D3FFE7049820210843049006A9012098
:104BD000087000E0E6E7FFE7FFE791E706A8007846
:104BE000002805D1FFE7099801682020C861FFE788
:104BF000049804210843049006A901200870FFE7E7
:104C0000099800688069059005A84078C0070028C9
:104C10000BD0FFE7049901200143049109990A6828
:104C20000102D16106A90870FFE705A84078400796
:104C300000280CD5FFE70498082108430490099840
:104C4000026801208102D16106A90870FFE705A86A
:104C50004078800700280CD5FFE70498022108431C
:104C600004900998026801204102D16106A90870E8
:104C7000FFE706A8007800281DD0FFE70998FFF796
:104C800005FF0998016848680D4A10404860049A79
:104C90000999486C1043486409994122202088549E
:104CA0000999422200208854FFE7099940220020F8
:104CB0008854FFE7FFE706A800780AB080BDC04629
:104CC00000E800FE10B585B0079C049003A80180A1
:104CD00002A90A70019300880D4A1040097809045E
:104CE000401801990843079908430121C9078843DF
:104CF00000900498006840680799490D8843054969
:104D000008400099084304990968486005B010BD3F
:104D1000FF030000009C00FC10B586B0089C0490C6
:104D2000039102A802700193FFE70498006880696C
:104D300003990840401A4142484102A90978884233
:104D400043D1FFE704980199089AFFF7BFFE0028B6
:104D500004D0FFE705A9012008703AE00198401C43
:104D6000002831D0FFE7FDF7B1FC0899401A0199FE
:104D7000884204D8FFE70198002824D1FFE704986F
:104D80000068806903990840401A4142484102A9DD
:104D90000978884216D1FFE7049A516C202001431C
:104DA0005164049941228854049942220020885475
:104DB000FFE70499402200208854FFE705A901205D
:104DC000087006E0FFE7FFE7AFE705A900200870DD
:104DD000FFE705A8007806B010BD80B584B002904A
:104DE00001910092FFE70298006880692021084045
:104DF0004009002839D1FFE702980199009AFFF78E
:104E000065FE002804D0FFE703A90120087030E008
:104E1000FDF75CFC0099401A0199884204D8FFE72D
:104E20000198002820D1FFE70298006880692021BE
:104E300008404009002816D1FFE7029A516C202053
:104E40000143516402994122885402994222002070
:104E50008854FFE70299402200208854FFE703A905
:104E60000120087005E0FFE7BDE703A900200870F6
:104E7000FFE703A8007804B080BD80B584B002903D
:104E800001910092FFE702980068806902210840C2
:104E9000400800283FD1FFE702980199009AFFF7E8
:104EA00015FE002804D0FFE703A90120087036E0B2
:104EB0000198401C00282DD0FFE7FDF707FC009962
:104EC000401A0199884204D8FFE70198002820D1B0
:104ED000FFE7029800688069022108404008002826
:104EE00016D1FFE7029A516C2020014351640299C8
:104EF000412288540299422200208854FFE70299F7
:104F0000402200208854FFE703A90120087006E032
:104F1000FFE7FFE7B7E703A900200870FFE703A852
:104F2000007804B080BD80B582B001900198806A9D
:104F300000900098016848680322904348600099F7
:104F40000020488400994885009935220120885422
:104F50000099886B0822104388630098FDF74EFF84
:104F600002B080BD80B582B001900198806A009047
:104F70000198C06900280DD1FFE7009802685168C8
:104F8000012081435160009A00215185009935220A
:104F90008854FFE70098FEF759F902B080BD80B54C
:104FA00082B001900198806A00900098FEF752F953
:104FB00002B080BD80B582B0FFE70A4802680121D7
:104FC0000A4302600068084001900198FFE70B2047
:104FD000009000221146FEF7BCF90098FEF7AEF9EA
:104FE00002B080BD3010024080B58CB000200B9024
:104FF0000A90099008900790FFE7204802688021F6
:105000000A4302600068084006900698FFE7FFE741
:105010001A48026804210A430260006808400590AB
:105020000598FFE7FFE71548026801210A4302607F
:105030000068084004900498FFE7FFE70F48026803
:1050400002210A4302600068084003900398FFE7CA
:105050000520000702902021009100220192FDF717
:105060001FFB009A01990298079201220892099168
:105070000A9107A9FDF778F90CB080BD2C10024009
:1050800080B582B0E748019015490160154941603B
:10509000002181600122C260016141618161C161C1
:1050A0000162FDF7B5FB002803D0FFE7FCF7D2FF54
:1050B000FFE7DC480021FDF70FFB002803D0FFE7E6
:1050C000FCF7C8FFFFE7D7480021FDF750FB002899
:1050D00003D0FFE7FCF7BEFFFFE702B080BDC0468C
:1050E000005400401706300080B582B00C48019093
:1050F0000C49016003210902416000218160C16007
:1051000001617D22920142618161FDF77BFE0028F1
:1051100003D0FFE7FCF79EFFFFE702B080BDC0466B
:10512000240500200038004080B582B000210191A4
:1051300000911048104A0260104A426081600821C4
:10514000C16080214161FFF79FF9002803D0FFE78C
:10515000FCF780FFFFE700200090019005486946BA
:10516000FFF72CF9002803D0FFE7FCF773FFFFE7F8
:1051700002B080BD6005002000100040409C00008F
:1051800080B582B00D4801900D490160E1214902CE
:10519000416000218160C16001610C224261816136
:1051A000C16101624162FFF72DFB002803D0FFE7D8
:1051B000FCF750FFFFE702B080BDC046A00500200D
:1051C00000380140FFE7FEE77047000083B0034668
:1051D00002A8038001AB198069460A7000887F2805
:1051E00005DCFFE701A80088402801DBFFE731E08C
:1051F000CA480079002806D0FFE76946087842428D
:1052000050410870FFE768460078012811D1FFE798
:1052100001A801880722084610400123834002A804
:105220000088C908C9014218EA49885C18438854B3
:1052300010E001A80188072208461040012383409E
:1052400002A80088C908C9014218E249885C98434D
:105250008854FFE703B0704780B584B0014603A8C7
:10526000017001780191FF200029029001D101987D
:105270000290029AD74801218902FBF7E5F804B0B1
:1052800080BDC04682B001AA1080684601800198A6
:10529000A24908800098488002B0704780B586B067
:1052A00001F072F95F48782101225F4BFDF740FB66
:1052B000002804D0FFE705A900200870ADE05B4896
:1052C0000490FFE70498002804D0FFE70498401EEC
:1052D0000490F7E77820029000210391AE2201F0BC
:1052E00063F9029803992022019201F05DF9029876
:1052F00003991022009201F057F902980399B02205
:1053000001F052F902980399C82201F04DF9029870
:10531000039A114601F048F9009A0298039901F0A6
:1053200043F902980399402201F03EF9029803994B
:10533000812201F039F902980399FF2201F034F932
:1053400002980399A12201F02FF902980399A6224D
:1053500001F02AF902980399A82201F025F9029890
:1053600003993F2201F020F902980399A42201F049
:105370001BF902980399D32201F016F90298039AB7
:10538000114601F011F902980399D52201F00CF9A8
:1053900002980399F02201F007F902980399D922A3
:1053A00001F002F902980399222201F0FDF8029817
:1053B0000399DA2201F0F8F802980399122201F019
:1053C000F3F802980399DB2201F0EEF8019A0298B3
:1053D000039901F0E9F8029803998D2201F0E4F8AD
:1053E00002980399142201F0DFF802980399AF2282
:1053F00001F0DAF8029803992E2201F0D5F803980B
:10540000FFF72AFF00F0B6F8039844490880488067
:105410000120487105A90870FFE705A8007806B0CB
:1054200080BDC046D0040020204E0000C40900000A
:1054300080B588B006AB1870059104A80270374893
:1054400000880599097840187F2808DCFFE7334871
:105450004088059949784018402804DBFFE707A9F0
:105460000020087056E000200390FFE7039805999C
:105470004978884244D2FFE70599486806AA12781D
:10548000203A49785143039A89184900405A0290BA
:1054900000200190FFE701980599097888422AD2F7
:1054A000FFE7029801998840000400280ED5FFE725
:1054B0001A490888019A80184988039A891804AA09
:1054C000127880B289B2FFF781FE0FE01349088895
:1054D000019A80184988039A891804AA12785342BD
:1054E0005A4180B289B2FFF771FEFFE7FFE70198EA
:1054F000401C0190CFE7FFE70398401C0390B5E7FD
:10550000059802780549088880180880069807A938
:105510000870FFE707A8007808B080BD8000002071
:1055200080B584B00290019168460270FFE702984E
:105530000078002815D0FFE70298007801996A46A4
:105540001278FFF775FF02990978884205D0FFE7C6
:105550000298007803A9087008E00298401C0290A5
:10556000E5E70298007803A90870FFE703A8007830
:1055700004B080BD80B584B003A900200870FFE7A7
:1055800003A80078072823DCFFE70398B030C2B2F5
:10559000782002900021019101F006F8019A02980A
:1055A000114601F001F801990298102200F0FCFF69
:1055B000029803A90978CA0106498A184021802364
:1055C00001F00AF8FFE70398401C03A90870D7E729
:1055D00004B080BD860000207047000080B584B014
:1055E00002900298401E000E002803D0FFE7012021
:1055F000039011E00298401E0949086000200190C4
:10560000C043032100F0A6FD019806490860064A40
:10561000072111600390FFE7039804B080BDC046E6
:1056200014E000E018E000E010E000E080B5FDF7D5
:1056300015FE80BDB0B5A0B012A802903821FAF7CF
:105640002AFF00200190119010900F900E900D9065
:1056500003A82821FAF71FFF019902981B4C236821
:105660000322D20293430122D5025B192360022355
:1056700012931592102216921C91FEF75FFA0028E1
:1056800003D0FFE7FCF7E6FCFFE70F200D900120B9
:105690000E9000210F91109111910DA8FEF71EF8A8
:1056A000002803D0FFE7FCF7D5FCFFE709200390B3
:1056B00000200690099003A8FDF75AFE002803D0A9
:1056C000FFE7FCF7C7FCFFE720B0B0BD007000406B
:1056D0007047000080B50248FEF78EFF80BDC046CF
:1056E0006005002083B0029001910298006800904C
:1056F00002980121890788420FD0FFE702982A49C2
:1057000088420AD0FFE702982849884205D0FFE77F
:105710000298274988420AD1FFE700987021884300
:10572000009001984168009808430090FFE70298B4
:105730000121890788420FD0FFE702981A49884261
:105740000AD0FFE702981949884205D0FFE702987E
:10575000174988420BD1FFE70098032109028843CB
:1057600000900198C168009808430090FFE70098F6
:105770008021884301990969084300900198806855
:105780000299C862019800680299886202990868C3
:105790000422104308600299012048610098029990
:1057A000086003B07047C046000400400008014094
:1057B0000014014081B0009000982421405C000753
:1057C00000280CD5FFE70098006840680121C90354
:1057D000884300994A6B104309684860FFE70098C6
:1057E0002421405CC00700280CD0FFE70098006827
:1057F000406801214904884300998A6A1043096876
:105800004860FFE700982421405C800700280CD501
:10581000FFE7009800684068012109048843009967
:10582000CA6A104309684860FFE700982421405C79
:10583000400700280CD5FFE7009800684068012168
:105840008904884300990A6B104309684860FFE7A0
:1058500000982421405CC00600280CD5FFE7009882
:105860000068806801210903884300998A6B10430E
:1058700009688860FFE700982421405C80060028C2
:105880000CD5FFE700980068806801214903884330
:105890000099CA6B104309688860FFE700982421CB
:1058A000405C400600281DD5FFE70098006840686E
:1058B000012109058843009A136C1843126850604F
:1058C0000098006C88420CD1FFE70098006840689F
:1058D00003214905884300994A6C104309684860D0
:1058E000FFE7FFE700982421405C000600280CD564
:1058F000FFE70098006840680121C90488430099C7
:105900008A6C104309684860FFE701B070470000E7
:1059100080B590B005900599842200208850FCF74E
:10592000D5FE04900598006800680007002831D56E
:10593000FFE70598049B4C4900910121490500228D
:1059400000F06EFB002824D0FFE7FFE7EFF31080A4
:1059500009900998039001200F900F9880F3108808
:1059600005980168086880229043086003980E90AB
:105970000E9880F31088FFE705992020C867FFE79D
:105980000599782200208854FFE706A903200870B3
:1059900065E0FFE70598006800684007002849D5E2
:1059A000FFE70598049B30490091012189050022F9
:1059B00000F036FB00283CD0FFE7FFE7EFF3108054
:1059C00008900898029001200D900D9880F310889F
:1059D00005980168086809225201904308600298FE
:1059E0000C900C9880F31088FFE7FFE7EFF310802E
:1059F00007900798019001220B920B9880F3108872
:105A00000598016888689043886001980A900A9810
:105A100080F31088FFE70599802220208850FFE757
:105A20000599782200208854FFE706A90320087012
:105A300015E0FFE705992020C86705998022885066
:105A400005990020086605994866FFE705997822C0
:105A500000208854FFE706A900200870FFE706A889
:105A6000007810B080BDC046FFFFFF018DB00390ED
:105A7000FFE7EFF3108006900698029001200C904B
:105A80000C9880F310880398016808680922520175
:105A90009043086002980B900B9880F31088FFE702
:105AA000FFE7EFF3108005900598019001220A921C
:105AB0000A9880F31088039801688868904388608A
:105AC00001980990099880F31088FFE70398006E09
:105AD000012818D1FFE7FFE7EFF310800490049846
